:020000020000FC
:1000000047C0189518950FC018951895189518950C
:100010001895189518951895189518952AC018953B
:100020001895189518951F931FB71F93EF93FF937B
:100030002F93EBE6F0E025E010811F3F79F0E89484
:1000400011811150118309F06894128110401283BC
:1000500029F426F010814FD11FEF1083ED5FFF4F81
:100060002A9551F72F91FF91EF911F911FBF1F917B
:100070001895EF93FF93AF93BF93A4B1B5B1EAE79F
:10008000F0E0A193B083BF91AF91FF91EF911895EC
:100090000FE50DBF04E00EBF00E00FBF11D11FD16F
:1000A0000CE005BD00E004BD1DE713BD00E809BF7D
:1000B00010E818B90FE806B900E407B90FEF01BB63
:1000C00000E002BB08E304BB00E005BBF894EAE7EC
:1000D000F0E0A0E0B0E0A193B083ECE7F0E04CEFFB
:1000E000419340E641934AED419342EF419346E606
:1000F000419346EB41934EEB419340EE41934EEFDB
:10010000419346EF408320E0EAE7F0E0A191B0811F
:1001100040E04B1750F0A43640F4ECE7F0E0E20F7B
:100120004081E6E8F0E0408304C0A456B040239547
:10013000EFCF20E0ECE7F0E0E20F4081E6E8F0E00E
:100140004183AA3018F0AA502395F4CFECE7F0E0F1
:10015000EA0F4081E6E8F0E04283789414E0A4E6F8
:10016000B0E0DCD015E0A8EEB3E0D8D006D07894AB
:10017000A89585D001D0FBCF0895EF93FF933F93CF
:10018000E6E8F0E000E205BB308132BB3F91FF9131
:10019000EF9112E0ACE3B0E0C1D00895EF93FF938C
:1001A0003F93E6E8F0E000E105BB318132BB3F91CF
:1001B000FF91EF9113E0ACE3B0E0B0D00895EF937E
:1001C000FF933F93E6E8F0E008E005BB328132BBE5
:1001D0003F91FF91EF9111E0ACE3B0E09FD0089523
:1001E000EF93FF93AF93BF932F934F93F89420E037
:1001F000EAE7F0E0A191B08140E04B1750F0A4365F
:1002000040F4ECE7F0E0E20F4081E6E8F0E0408304
:1002100004C0A456B0402395EFCF20E0ECE7F0E017
:10022000E20F4081E6E8F0E04183AA3018F0AA50DE
:100230002395F4CFECE7F0E0EA0F4081E6E8F0E048
:10024000428378944F912F91BF91AF91FF91EF919D
:1002500014E0A8ECB0E062D00895EF93FF93AF9361
:10026000BF93369ABF91AF91FF91EF9115E0A8EE41
:10027000B3E054D008950895089508950895E0E6F0
:10028000F0E010811F3FD9F0FF27110FE12FE25955
:10029000FC4FC895102D0190C895E12FF02DEF93DC
:1002A000FF932AE0E0E6F0E0F894118111932A959B
:1002B000E1F71FEF11937894FF91EF91099408955E
:1002C000EF93FF93EBE6F0E025E01FEF30E01193B2
:1002D000319331932A95D9F7FF91EF910895EF93D8
:1002E000FF93E0E6F0E01FEF2BE011932A95E9F78A
:1002F000FF91EF910895EF93FF933F932F93E0E6E3
:10030000F0E02BE031913F3F19F02A9511F0FACF40
:1003100012932F913F91FF91EF910895EF93FF93E7
:100320003F932F93EBE6F0E025E03081311729F081
:10033000ED5FFF4F2A9531F0F8CFF894A183B28397
:10034000789410C0EBE6F0E025E030813F3F29F0E3
:10035000ED5FFF4F2A9531F0F8CFF8941083A18319
:10036000B28378942F913F91FF91EF910895BC0053
:10037000BD00CE00DF00F0002D013B013C013D013E
:020380003E013C
:00000001FF
